:4000000000400020110000007D0500007D05000080B500AF00F0B6FA80B500AF224B12221A6002F001F8214B181C01F0CDFE012002F00AF8302001F0D7FE1D4B1D4A1A600D
:400040001D4B8022D2051A601C4B1C4A126802210A431A601A4B1B4A1A601B4B1A4A126808218A431A60FA23DB00181C01F008FF164B181C01F07CFF154BD02252021A60B7
:40008000144B154A1A60154B802212061A60144B8022D2021A60134B40221A60064B8022D2051A60BD4680BD30001040001BB70004010B40060000800C020B4078002E4000
:4000C0007C002E406A2D00006CF02E40DC050000000301400000014040FF008008010B4000010B400401014080B582B000AF72B6424B00221A60FB1D00221A7023E0FB1D64
:400100001A78131C5B009B185B003D4A9B183B603B681A78597809020A43997809040A43DB781B061343191C3B681A795B791B0213439BB2081C191C00F0A8FAFB1D1A7899
:40014000FB1D01321A70FB1D1B78012BD7D92D4BEE2212061A602C4B992212041A602B4B992212041A602A4B992212041A60294B992212041A60284B992212041A60274AD8
:40018000264B1B78DBB202210B43DBB21370244A234B1B78DBB23C218B43DBB214210B43DBB213701D4A1D4B1B78DBB216210B43DBB213701B4BD82212041A601A4B2022CB
:4001C0001A601A4BC42292021A60194B20221A60184B40221A60184BC02252031A60174BC0221A60164BD82212041A60FFF714FF00F05CFABD4602B080BDC0466CF02E40FF
:400200009C400100000002400001024000500F4010500F4020500F4030500F4000700F4001700F4008000440000104400801044018010440000204400802044000030440EB
:400240000803044010B5064C2378002B07D1054B002B02D0044800E000BF0123237010BDE80E0020000000009440010008B5084B002B03D00748084900E000BF07480368CC
:40028000002B00D108BD064B002BFBD09847F9E70000000094400100EC0E0020A80B00200000000080B582B000AF62B601F004FF0B4B181C01F01CFF05237B60094B181C72
:4002C00000F0D8FA012000F04FFA012000F026FA012000F0FFF900F09FF802F09BFBFAE7984001005D03000080B582B000AF78607B68DB6801331B78FF2B27D17B68DB685C
:4003000002331B78312B21D17B68DB6803331B78012B1BD17B68DB6804331B78342B15D17B68DB6805331B78122B0FD100F082FB7B685B68074A111C1A1C0623081C111C1C
:400340001A1C02F026FB044B01221A70BD4602B080BDC0464C2000204520002080B584B000AF786039607B682B2B49D006D8202B0BD0282B27D0012B44D044E0422B14D051
:40038000522B2AD0412B05D03DE03B68181CFFF7ABFF38E01D4A3B68111C1A1C0223081C111C1A1C02F0F5FA2DE0002000F0DCF9012000F0B3F9012000F08CF9144B181C07
:4003C00001F0B2FD1FE0002000F0CEF9012000F0A5F9012000F07EF915E03B68FB60FB685B681A780B4B1A700A4B1B78181C01F07FFE0D2001F07CFE612001F079FE02E0D8
:40040000C04600E0C046BD4604B080BD48200020B80B00004420002080B584B000AF4E4B1B78DBB2012B00D192E04C4B1B78012B00D181E002DC002B06D089E0022B60D0A0
:40044000032B00D16FE083E0454B1B78052B1FD1444B1B78002B0BD0424B00221A70424B181C00F0F7FA031C1A1C404B1A800FE03B4B1B78052B0BD1012000F075F9012057
:4004800000F04CF9002000F025F9002000F080FA374B1B78002B2BD1364B1A785B781B021A4300231204120C1B0C1B041343181C00F06AFB0F23FB1801221A703B1C0F22BD
:4004C0001A813B1C01229A803B1C0F22BA181A60294B391C1A785B781B021A4300231204120C1B0C1B041343181C0DF0E9FE07E01F4B1B78052B03D1184B01221A7027E047
:4005000026E0012000F030F9002000F007F9012000F0E0F8164B1B78052B03D00F4B00221A7015E014E0124B1B78052B03D00B4B00221A700CE00BE00D4B1B78052B03D0E2
:40054000064B00221A7002E0044B02221A70C046BD4604B080BDC046842000204320002074200020452000204C2000204A20002075200020882000204820002080B500AF20
:40058000FEE7C04680B586B000AF224B7B61224B3B61204B7B6135E03B691B68FB603B695B68BB603B699B683B6000237B600CE0FB681A68BB681A60BB680433BB60FB68FE
:4005C0000433FB607B6804337B607A683B689A42EED13B69DB683B6000237B6008E0BB6800221A60BB680433BB607B6804337B607A683B689A42F2D13B6910333B617B6938
:40060000013B7B617B69002BC6D102F08DF9FFF749FEFEE701000000D842010080B582B000AF154B144A126801218A431A6000237B600FE07B68032B04D8104B7A689200E6
:40064000D35800E00E4B0F4A796889008B507B6801337B607B682F2BECD9FFF745FD0A4B00221A60044B044A126801210A431A60BD4602B080BDC046000010400000000013
:400680007D05000000000020C000002080B582B000AF786039607A683B68101C00211A1C02F080F9BD4602B080BDC04680B500AF054B03221A60054B03221A60044B002293
:4006C0001A60BD4680BDC0463000304030003140000E3F4080B584B000AF021CFB1D1A700D4B1B68DAB20F23FB187F210A401A70FB1D1B78DB01D9B20F23FB180F22BA181A
:4007000012780A431A70044B0F22BA1812781A60BD4604B080BDC0460003044080B584B000AF021CFB1D1A700E4B1B68DAB20F23FB1840218A431A70FB1D1B789B01DBB2B0
:4007400040221340D9B20F23FB180F22BA1812780A431A70034B0F22BA1812781A60BD4604B080BD0003044080B584B000AF021CFB1D1A700E4B1B68DAB20F23FB1840211A
:400780008A431A70FB1D1B789B01DBB240221340D9B20F23FB180F22BA1812780A431A70034B0F22BA1812781A60BD4604B080BD0002044080B500AF194B00221A70194B3E
:4007C00000221A70184B00221A70184B5A88184B1A80164B9A88164B5A80144B9A79144B1A73124BDA79124B1A71114B0622DA810F4B08221A820E4B00225A820C4B642215
:400800009A820B4B0022DA82094B012252421A83084B1E221A8000F00FF8BD4680BDC0469A2000208420002098200020AC0B0020582000207220002080B500AF0A4B1B8843
:40084000002B05D1094B181C00210C2202F0AAF8054BDB88002B05D1054B181C0021062202F0A0F8BD4680BDC40B00208C2000207C200020B0B594B004AF78603E23FB18A2
:4008800000221A802823FA183A4B111C1A1C1423081C111C1A1C02F07CF8374B1B78002B04D1FFF787FF344B01221A707B68002B55D0324B7A681A603E23FB181B88002B08
:4008C00029D11023FB181C22BA185A601023FB182022BA181A601023FB1800221A812023FB181B221A802023FB181B225A802023FB1804221A711C23FB1800221A703E2317
:40090000FC181023FA180E23FB18101C191C02F057F9031C23803E23FB181B88002B22D13E23FC1816481749AE231A012823FD180523009300230193002302932B1C02F09E
:400940009BF8031C23803E23FB181B88002B0AD10D4B01221A700D4B08221A7003E03E23FB1801221A803E23FB181B88181CBD4610B0B0BDA8400100040F002054200020B5
:40098000190F0000C8000020742000207520002090B585B000AF021CFB1D1A70FB1D1B78022B04D90E23FB1801221A8035E0FB1D1B78002B09D11C4B01221A811A4B0422AA
:4009C0005A80194B04229A800EE0FB1D1B78012B0AD1154B96221A81134B802212015A80114BE122D2009A80104BFA1D12781A700E23FC180C4B181C0CF02CFE031C2380B0
:400A00000E23FB181B88002B07D1094B1B78DBB204221343DAB2064B1A700E23FB181B88181CBD4605B090BDAC0B0020982000209A20002080B500AF0CF038FE044B1B78D4
:400A4000DBB208221343DAB2014B1A70BD4680BD9A20002090B585B000AF7860294B1B78052B05D00E23FB180422FF321A8041E07B68002B04D10E23FB1801221A8039E08D
:400A80000D23FB1800221A7012E00D23FB181B780D22BA1812787968895C1B4AD3180A1C5A710D23FB181A780D23FB1801321A700D23FB181B78052BE7D97B689A79124BFF
:400AC000DA720E23FC18104B181C0CF069FD031C23800E23FB181B88002B0BD1094B04221A700A4B1B88002B04D0084B1B88181C09F0E0FC0E23FB181B88181CBD4605B0F7
:400B000090BDC04674200020582000207220002090B583B000AF104B1B78042B04D0BB1D0422FF321A8011E0BC1D0CF02BFD031C23800A4B1B88002B01D009F0D5FCBB1D3D
:400B40001B88002B02D1044B05221A70BB1D1B88181CBD4603B090BD742000207220002080B582B000AF78607B681B789AB27B6801331B789BB21B029BB213439BB2181CD4
:400B8000BD4602B080BDC04690B585B000AF3B1D1880314B1B78022B07D1304B1B78002B09D02E4B1B78052B05D00C23FB180422FF321A8049E00F23FB1800221A7014E0AC
:400BC0000F23FB181A78131C5B009B185B00244A9B18181C0021042201F0E4FE0F23FB181A780F23FB1801321A700F23FB181B78012BE5D91B4A3B1D111C1A1C0223081C13
:400C0000111C1A1C01F0C5FE174B01221A80164B012252425A80FFF70FFE0C23FC183B1D18680DF0C1FA031C23800C23FB181B88002B0AD1094B01221A700C4B1B78DBB291
:400C400002221343DAB2094B1A700C23FB181B88181CBD4605B090BD7420002075200020C40B002088200020782000209A20002080B582B000AF78607B68DB880D4A934260
:400C800014D10D4B5B88002B08D17B689A880A4B5A807B689A78084B1A7007E0074B1B687A68911D86225200101C9847BD4602B080BDC046052A00007C2000205420002042
:400CC00080B582B000AF78607B689B880B4A934210D10B4B9B88002B04D17B685A88084B9A8007E0074B1B687A68111D86225200101C9847BD4602B080BDC0460229000056
:400D00007C2000205420002080B582B000AF78600C4B5A887B689B899A420FD10A4B1B68832251007A68081C111C9847074B1B78DBB201229343DAB2044B1A70BD4602B014
:400D400080BDC0467C200020542000209A20002080B582B000AF7860BD4602B080BDC04680B582B000AF7860BD4602B080BDC04680B582B000AF7860BD4602B080BDC04654
:400D800080B582B000AF7860BD4602B080BDC04680B582B000AF7860BD4602B080BDC04680B500AF094B00225A70084B00221A70074B1B78052B03D1054B07221A7002E076
:400DC000034B08221A70BD4680BDC046882000207520002080B582B000AF78607B681B78032B3ED1254B1B78DBB21A1C0223134037D0234B1B78022B10D002DC012B05D05B
:400E000024E0032B12D0042B18D01FE01D4B1B680822FF32101C0021984717E0194B1B6884225200101C002198470FE0154B1B680A22FF32101C0021984707E0114B1B68F3
:400E400085225200101C00219847C0460B4B1B78DBB202229343DAB2084B1A70084B00221A707B681B78042B05D1074B1B78042B01D1FFF74DFEBD4602B080BD9A20002001
:400E800075200020542000207420002080B500AFBD4680BD80B584B000AF78600E23FB1800221A707B689B79002B1CD10F23FB1800221A7012E00F23FB181B787A68D35C56
:400EC000002B04D00E23FB1801221A700BE00F23FB181A780F23FB1801321A700F23FB181B78052BE7D90E23FB181B78181CBD4604B080BD80B582B000AF021CBB1D1A80D1
:400F0000BD4602B080BDC04680B582B000AF7860BD4602B080BDC04680B586B000AF021C3960FB1D1A70C14B1B78DBB201221343DAB2BE4B1A70FB1D1B78712B00D95AE141
:400F40009A00BB4BD3181B689F460C23FB1807221A700C23FB1800225A700C23FB18181C03F096FC0C23FB1807221A700C23FB1801225A700C23FB18181C03F089FCAD4B56
:400F80001B68181CFFF786FF031E05D0A94B1B68181C01F043FD03E0A74B181C01F03EFD03200CF003FA0823FB183F221A700823FB1800225A700823FB18181C0CF014FA0D
:400FC0009E4B05221A7017E13B68181CFFF702FF12E13B681A789A4B1A700DE13B683B613B691B78002B18D13B695B78002B0BD1944B0022DA80934B00229A80914B924AD7
:401000001A603B698F4A5A60884B1B78DBB201229343DAB2854B1A70EEE0EDE0834B1B78DBB21A1C202313400ED1884B1B78102B02D1864B0522DA70854B1A78834B101CE7
:40104000191C0BF0F1FFD7E0D6E03B68181CFFF75BFFD1E03B68181CFFF756FF7D4B1B88002B01D009F040FA744B02221A70C3E0724B05221A70BFE0704B1B78022B40D0A7
:401080006A4B1B78DBB21A1C0123134039D0674B1B78DBB21A1C042313400BD0674B03221A70624B1B78DBB204229343DAB25F4B1A7026E05D4B1B78DBB21A1C08231340DC
:4010C0000BD05E4B05221A70584B1B78DBB208229343DAB2554B1A7013E0584B1B78032B0FD1564B05221A705B4B1B78002B08D10120FFF74DFC031E03D1504B03221A70DD
:401100007AE079E03B681B88181CFFF7F3FE73E04F4A3B68111C1A1C0223081C111C1A1C01F037FC464B00221A704C4B00221A70FFF7ACFE60E0FFF733FE5DE03B685B888F
:40114000162B05D81623FB183A6852881A8003E01623FB1817221A803B681622BA1811881A8800231204120C1B0C1B041343181C0DF068FB40E03B68181C00F073F83BE011
:401180003B68181C00F064FA36E000F0B5FD33E03B68181C00F092FC2EE03B68181C00F0FBFD29E03B68181CFFF7DAFD24E03B68181CFFF7A9FD3B68181CFFF7D9FD1B4BF0
:4011C0001B78DBB21A1C0123134004D13B6818680CF0B0FF10E00FE03B68181CFFF7D0FD0AE03B68181CFFF7D3FD05E03B68181CFFF7AEFD00E0C0460C4B1B78DBB21A1C8F
:40120000112313400FD0094B1B78DBB201229343DAB2064B1A70124B1B68FA1D11783A68081C111C9847BD4606B080BD9A200020BC400100C00B0020B80B002074200020D3
:4012400084200020080F0020A80B0020D00B0020882000207220002098200020752000205420002080B586B000AF78600023FB60664B1B78012B00D0C5E0654B1B78DBB2E5
:401280001A1C0223134000D1BDE00A23FB187A6812891A800A23FB181B88062B05D00A23FB181B88142B00D0A6E00823FB187A6852891A801423FB1800221A808AE07B6872
:4012C0005A681423FB181B88D318FB601323FB1800221A70FB681A884E4B1B889A4200D26EE0FB681A884B4B5B889A4200D967E00A23FB181B88062B62D11623FB18002298
:401300001A8053E01623FB181A884349131C5B009B185B00CB189A88FB689B889A423ED11623FB181A883C49131C5B009B185B005B5A002B13D11623FB181A883649131CED
:401340005B009B185B00FA68CB18111C0422181C01F01FFB1323FB1801221A701FE01623FB181B88002B0ED11623FB181B885A1C2949131C5B009B185B00CB189A88FB6868
:401380009B889A420BD0254B1B68FA68111D0C22FF32101C98471323FB1801221A701623FB181A881623FB1801321A801623FB181B88012B04D81323FB181B78002BA1D0FA
:4013C0001423FB181422B9180A22BA18098812888A181A801423FA180823FB1812881B889A4200D26BE70A4B1B78DBB201229343DAB2074B1A7006E0084B1B680822FF3286
:40140000101C00219847BD4606B080BD752000209A20002078200020C40B00205420002080B582B000AF021CFB1D1A70FB1D1B78002B06D0324B1B780133DAB2304B1A7069
:4014400002E02F4B00221A7005E02D4B1B780133DAB22B4B1A702A4B1B78012B19D8284B1B78191C274A0B1C5B005B185B009A5A254B1B889A42E8D3214B1B78191C214A56
:401480000B1C5B005B185B009A5A1F4B5B889A42DBD81B4B1B78012B28D8194B1B781A1C131C5B009B185B00164A9918174B1A785B781B021A4300231204120C1B0C1B0433
:4014C0001343181C0CF088FE031E15D0104B1B6884225200101C002198470E4B1B78DBB202229343DAB20B4B1A7005E00A4B03221A70002000F02CFABD4602B080BDC046E2
:4015000099200020C40B00207820002088200020542000209A2000207520002080B582B000AF78607B68DB88434A934238D0424A934207DCA822920193420DD03F4A9342F1
:401540001CD075E03E4A93424ED03D4A934239DB3C4A93425AD06BE03B4B1B88002B04D17B689A88384B1A8062E0384B1B687A68911D86225200101C984759E0324B5B88AE
:40158000002B04D17B689A882F4B5A8050E02F4B1B687A68911D86225200101C984747E0294B9B88002B04D17B689A88264B9A803EE0264B1B687A68911D86225200101CFA
:4015C000984735E0204BDB88002B04D17B689A881D4BDA802CE01D4B1B687A68911D86225200101C984723E0174B1B89002B04D17B689A88144B1A811AE0144B1B687A6810
:40160000911D86225200101C984711E00E4B5B89002B04D17B689A880B4B5A8107E00B4B1B687A68911D86225200101C9847C046BD4602B080BDC046022A0000012A0000E9
:40164000042A0000A62A00008C2000205420002080B592B000AF7860B64B1B78DBB21A1C0223134000D161E13E23FB187A6812891A803C23FB187A6852891A807B685B6832
:401680003B64AD4B1B78032B00D099E04623FB1800221A808AE03B6C181CFFF761FA031C1A1C2423FB181A803B6C02333B643B6C1A782423FB189A703B6C01333B643B6C39
:4016C000181CFFF74DFA031C1A1C2423FB189A803B6C02333B643E23FB181B88152B20D12423FB1802229A752423FB180622396C9B181022181C01F04CF93B6C10333B6461
:401700008E4B1B78191C8E4A0B1C5B005B185B00D3189B881A1E8B4B9A4200D000E0C04632E03E23FB181B88072B2DD12423FB1801229A753B6C181CFFF712FA031C1A1C1B
:401740002423FB18DA803B6C02333B647B4B1B78191C7B4A0B1C5B005B185B00D3189B88C0225201934203D0774A934206D00BE02423FB18181CFFF7D1FE05E02423FB18C3
:40178000181CFFF775FAC0466A4B1B78DBB201229343DAB2674B1A704623FB184622B9183E22BA18098812888A181A804623FA183C23FB1812881B889A4200D26BE7B5E0E7
:4017C0005D4B1B78022B00D0B0E04623FB1800221A80A2E03B6C181CFFF7C2F9031C1A1C0C23FB181A803B6C02333B643B6C181CFFF7B6F9031C1A1C0C23FB185A803B6C97
:4018000002333B643B6C181CFFF7AAF9031C1A1C0C23FB189A803B6C02333B643E23FB181B88062B04D10C23FB1802229A7562E03E23FB181B88082B5DD10C23FB18012283
:401840009A753B6C181CFFF78BF9031C1A1C0C23FB18DA803B6C02333B644423FB1800221A8033E04423FB181A883549131C5B009B185B00CB189A880C23FB18DB889A4297
:401880001DD14423FB181A882D49131C5B009B185B005B5A002B12D14423FB181A882849131C5B009B185B000C22BA180220C91813180422081C191C01F06BF80BE04423D5
:4018C000FB181A884423FB1801321A804423FB181B88012BC6D9194B1B78191C184A0B1C5B005B185B00D3189B881A1E174B9A4200D000E0C0460F4B1B78DBB20122934379
:40190000DAB20C4B1A704623FB184622B9183E22BA18098812888A181A804623FA183C23FB1812881B889A4200D253E7BD4612B080BDC0469A20002075200020992000206A
:40194000C40B0020FEFF0000011800001218000080B582B000AF021CFB1D1A70FB1D1B78002B06D0354B1B780133DAB2334B1A7002E0324B00221A7005E0304B1B780133A9
:40198000DAB22E4B1A702D4B1B78012B19D82B4B1B78191C2A4A0B1C5B005B185B009A5A284B1B889A42E8D3244B1B78191C244A0B1C5B005B185B009A5A224B5B889A42B8
:4019C000DBD81E4B1B78012B2FD81C4B1B78181C1D491B4A031C5B001B185B00087849780902084300210004000C090C09040143985AD3185B881B04034300221A1C081C35
:401A0000111C0CF0B5FB031E15D0104B1B680A22FF32101C002198470D4B1B78DBB202229343DAB20A4B1A7005E00A4B04221A70002000F0D3F8BD4602B080BD99200020F3
:401A4000C40B00207820002088200020542000209A2000207520002080B582B000AF3B1C00221A803B1C00225A80114B1B78002B09D1104B5B8801339AB23B1C1A800E4B5C
:401A80001A893B1C5A803B1D3A1C12681A603A1D002311880904090C1B0C1B040B43528812041B041B0C1343181CBD4602B080BD992000207C200020C40B002080B58AB042
:401AC00000AF78600823FB1800225A80404B1B78042B00D079E03F4B1B78DBB21A1C0223134000D171E01E23FB187A6812891A807B681A7B0823FB181A750823FB187A6865
:401B000012881A800823FB181B7D012B04D12623FB1804221A8003E02623FB1812221A807B685B683B622423FB1800221A803CE03B6A181CFFF714F8031C1A1C0823FB188E
:401B40005A803B6A02333B620823FB181B7D022B0CD10823FB183A6A0433111C1022181C00F017FF3B6A10333B6214E03B6A181CFEF7F6FF031C1A1C0823FB189A803B6AF4
:401B800002333B62144B1B78002B04D10823FB18181CFFF795F82423FB182422B9182622BA18098812888A181A802423FA181E23FB1812881B889A42BAD3064B1B78DBB2B6
:401BC00001229343DAB2034B1A70BD460AB080BD752000209A2000209920002080B584B000AF021CFB1D1A700C23FB1800221A800C23FB1800225A80FB1D1B78002B06D066
:401C0000374B1B780133DAB2354B1A7005E0344B00221A70FB1D01221A70FFF71DFF031C1A1C0C23FB181A600C23FB181A882D4B1B889A4215D90C23FB181A88294B5B88C9
:401C40009A420ED80C23FB185A88264B1B889A4207D30C23FB181A880C23FB185B889A4203D91F4B1B78002BC6D01D4B1B78002B21D11D4B0C22B9181A785B781B021A43D7
:401C800000231204120C1B0C1B041343181C0CF059FA031E21D0154B1B6885225200101C00219847124B1B78DBB202229343DAB20F4B1A7011E00F4B05221A700B4B1B68D8
:401CC0001222FF32101C00219847094B1B78DBB202229343DAB2064B1A70BD4604B080BD992000207820002088200020542000209A2000207520002080B500AF244B1B7828
:401D0000DBB21A1C022313403FD0224B1B78022B17D002DC012B05D037E0032B1DD0042B27D032E01B4B02221A700020FFF778FB174B1B78DBB201229343DAB2144B1A706F
:401D400023E00120FFF76CFB114B1B78DBB201229343DAB20E4B1A7017E00120FFF7F8FD0B4B1B78DBB201229343DAB2084B1A700BE00120FFF732FF054B1B78DBB201225D
:401D80009343DAB2024B1A70C046BD4680BDC0469A2000207520002080B582B000AF7860074B1B78DBB21A1C0223134005D07B689B790A2B01D1FFF79FFFBD4602B080BDA8
:401DC0009A200020000000000230800803D00138FDD1C046C046C0467047EFF3108072B6704780F31088704790B58BB000AF78602723FC18FFF7F1FF031C2370184B1A68B7
:401E00000C23FB181A60174B1A680C23FB185A607B68033B144AD35C1A1C0C23FB189A60124B1A680C23FB18DA601C23FB18104A1A600C23FA181C23FB185A600D4B1C2282
:401E4000BA181A600C4B0D4A1A600A4B1B682723FB181B78181CFFF7C4FFBD460BB090BD08010B4000010B408442010030001040B6EA000008001040040010401700008064
:401E800080B584B000AF78600023FB60154B154A126801210A431A60134B144A1A60144B134A1268802109020A431A607B68002B12D01023FB600CE0012000F059F800F0F7
:401EC00019F8031E02D00023FB6005E07B68013B7B607B68002BEFD1FB68181CBD4604B080BDC04660F02E4078002E400220000010002E4080B582B000AF054B1B680122D2
:401F000013407B607B68181CBD4602B080BDC0460C002E4080B582B000AF021CFB1D1A7001BEBD4602B080BD80B582B000AF786009E00C4B1B68181CFFF746FF7B680A4A0C
:401F4000944663447B607A6880231B029A42F0D8064B1B687A685343181CFFF735FFBD4602B080BDE40B00200080FFFFDC0B002080B582B000AF021CBB1D1A80BB1D1B886E
:401F8000044A12785343181CFFF71EFFBD4602B080BDC046E00B002080B500AF0E4B0E4A126801218A431A600B4B0B4A126802218A431A60094B094A126830218A431021F2
:401FC0000A431A60054B054A126807218A4301210A431A60BD4680BD00F02E4000FF2E4080B500AF0E4B0E4A126802218A431A600C4B0C4A126807218A4302210A431A6099
:40200000084B084A126830218A4320210A431A60034B034A126801210A431A60BD4680BD00F02E4000FF2E4080B500AFFFF7B4FF044B044A1268802109060A431A60BD4634
:4020400080BDC04600F02E4080B584B000AF78600C4B1B6801221340FB607B68002B02D0012B03D005E0FFF797FF06E0FFF7B8FF03E00020FFF74EFFC046FB68181CBD465B
:4020800004B080BD00F02E4080B500AF00F046F8BD4680BD80B500AF064B064A1268802109060A431A6000F019F800F01BF8BD4680BDC0460000244080B500AF064B1B7893
:4020C000002B04D1FFF7E0FF034B01221A70FFF7E1FFBD4680BDC046100F002080B500AFBD4680BD80B500AF00F078F8BD4680BD80B582B000AF7860C046064B1B681F2204
:402100001340082BF9D0044B7A681A60BD4602B080BDC046080224404002244080B500AF1B4B1C4A1A601C4B00221A601B4B01221A601B4B1B4A1A601B4B07221A601B4BB5
:4021400000221A601A4B01221A601A4B154A1A60194B00221A60194B04221A60184B00221A60184B00221A60174B00221A60174B00221A60164B00221A60164B00221A608B
:40218000144B1B689AB2144B1A80BD4680BDC046000024400B00000240002440480024400003244007000080040324401003244044002440000224400402244050002440F5
:4021C000880E2440C80E2440480F2440080F2440C80F2440880F2440120F002080B500AF074B074A126807490A40902109040A431A60054B054A12881A60BD4680BDC046E5
:4022000000010240FFFF0FFF880F2440120F002080B582B000AF78600A1CBB1C1A80BB1C1A887B681A60BD4602B080BD80B582B000AF78600A1CBB1C1A80BB1C1A887B68E5
:402240001A60BD4602B080BD80B584B000AF494B1B78DBB21B02484A1278D2B21343FB60464B1B78DBB21B02454A1278D2B21343BB60BB68434A934207D1FB68072B04D115
:40228000414BBB600423FB6009E0BA68D4231B019A4204D1FB68042B01D13B4BBB603B4BBA681A603A4BFA681A603A4B1B78DBB21B02394A1278D2B21343FB60FA68802395
:4022C0009B019A4202D0FB68002B01D1334BFB60334BFA681A60334B1B78DBB21B02324A1278D2B21343FB60FB68304A934206D0FB682F4A934202D0FB68052B01D12D4B23
:40230000FB602D4BFA681A602C4B1B681B097B602B4B1B68AA2B29D17B68012B26D9214B1B78DBB20E2B21D1264B1B78DBB29BB21B0299B2244B1B78DBB29AB2BB1C0A4323
:402340001A80224BBA1C12881A60214B1B78DBB29BB21B0299B21F4B1B78DBB29AB23B1C0A431A801C4B3A1C12881A60BD4604B080BDC046D9F0FF0FD8F0FF0FDFF0FF0FC2
:40238000DEF0FF0F580B0000580D00006C002E4074002E40DBF0FF0FDAF0FF0F0220000078002E40DDF0FF0FDCF0FF0F0F0F000005050000050F000080002E40EC0F00F03A
:4023C000E00F00F06DF2FF0F6CF2FF0F84002E406FF2FF0F6EF2FF0F94002E4080B582B000AF021CBB1D1A80BB1D1B88181CFFF7BFFDBD4602B080BD80B500AF00F0DEF8B1
:40240000BD4680BD80B500AF00F0E2F8BD4680BD80B500AF00F0DCF8044B181C00F09CF8032000F0A5F8BD4680BDC0461926000080B500AF024B181C00F07CF8BD4680BD81
:402440001926000080B500AF0223FF33181CBD4680BDC04680B582B000AF78602B23181CBD4602B080BDC04680B582B000AF78602B23181CBD4602B080BDC04680B582B031
:4024800000AF78602B23181CBD4602B080BDC04680B582B000AF78602B23181CBD4602B080BDC04680B582B000AF78602B23181CBD4602B080BDC04680B582B000AF78605D
:4024C0002B23181CBD4602B080BDC04680B582B000AF78602B23181CBD4602B080BDC04680B582B000AF78602B23181CBD4602B080BDC04680B500AF2B23181CBD4680BDEC
:4025000080B582B000AF021CFB1D1A702B23181CBD4602B080BDC04680B582B000AF786039602B23181CBD4602B080BD80B500AFBD4680BD80B582B000AF786000F048F80E
:402540007B68181C00F008F8032000F011F800F035F8BD4602B080BD80B582B000AF7860024B7A681A67BD4602B080BD0000002090B585B000AF021CFB1D1A700623FB600C
:402580000B23FC18FFF729FC031C23700A4B0A4A1268C0218A43111CFA1D1078FA689040021C0A431A600B23FB181B78181CFFF718FCBD4605B090BD0CE400E080B500AF8D
:4025C000024B802252011A60BD4680BD00E100E080B500AF024B802252011A60BD4680BD80E100E090B583B000AFFC1DFFF7F5FB031C2370074B074A126804218A431A609C
:4026000030BFFB1D1B78181CFFF7EBFBBD4603B090BDC04610ED00E080B500AF11F026FDBD4680BD002243088B4274D303098B425FD3030A8B4244D3030B8B4228D3030C60
:402640008B420DD3FF22090212BA030C8B4202D31212090265D0030B8B4219D300E0090AC30B8B4201D3CB03C01A5241830B8B4201D38B03C01A5241430B8B4201D34B03D5
:40268000C01A5241030B8B4201D30B03C01A5241C30A8B4201D3CB02C01A5241830A8B4201D38B02C01A5241430A8B4201D34B02C01A5241030A8B4201D30B02C01A5241E3
:4026C000CDD2C3098B4201D3CB01C01A524183098B4201D38B01C01A524143098B4201D34B01C01A524103098B4201D30B01C01A5241C3088B4201D3CB00C01A5241830874
:402700008B4201D38B00C01A524143088B4201D34B00C01A5241411A00D20146524110467047FFE701B5002000F0FCF802BDC0460029F7D003B5FFF775FF0EBC4243891ADF
:402740001847C04603460B437FD4002243088B4274D303098B425FD3030A8B4244D3030B8B4228D3030C8B420DD3FF22090212BA030C8B4202D31212090265D0030B8B4213
:4027800019D300E0090AC30B8B4201D3CB03C01A5241830B8B4201D38B03C01A5241430B8B4201D34B03C01A5241030B8B4201D30B03C01A5241C30A8B4201D3CB02C01A7D
:4027C0005241830A8B4201D38B02C01A5241430A8B4201D34B02C01A5241030A8B4201D30B02C01A5241CDD2C3098B4201D3CB01C01A524183098B4201D38B01C01A5241E3
:4028000043098B4201D34B01C01A524103098B4201D30B01C01A5241C3088B4201D3CB00C01A524183088B4201D38B00C01A524143088B4201D34B00C01A5241411A00D233
:4028400001465241104670475DE0CA0F00D04942031000D34042534000229C4603098B422DD3030A8B4212D3FC22890112BA030A8B420CD3890192118B4208D3890192113A
:402880008B4204D389013AD0921100E08909C3098B4201D3CB01C01A524183098B4201D38B01C01A524143098B4201D34B01C01A524103098B4201D30B01C01A5241C30868
:4028C0008B4201D3CB00C01A524183088B4201D38B00C01A5241D9D243088B4201D34B00C01A5241411A00D20146634652415B10104601D34042002B00D5494270476346DA
:402900005B1000D3404201B5002000F00BF802BD0029F8D003B5FFF715FF0EBC4243891A1847C0467047C0460E4B70B500251E1C0D4CE41AA410A54204D0AB00F358984710
:402940000135F8E711F0B6FC084B00251E1C084CE41AA410A54204D0AB00F35898470135F8E770BDC0420100C0420100C0420100C842010030B50024944208D0035D651C59
:402980000C5DA34201D0181B02E02C1CF4E7002030BD002310B5934203D0CC5CC4540133F9E710BD031C8218934202D019700133FAE77047134A1088810703D08107890FDD
:4029C000401A001D11791030484381B25088820703D08207920F801A001D800040180A494030098980B2CA0701D0503080B2890706D504495422091F09785143081880B253
:402A000070470000EE0B0020140F002010B501F093FE10BD10B500F04FFA10BD10B50749044609780220002907D1204601F0D4FE002802D120460AF08BFD10BD620D002039
:402A400070B504460120002C12D02368002B0FD0616800290CD0074D06222889208118462968FFF796FF6968606809780170002070BD0000140F0020FFB585B00027684634
:402A80000E9D07734C481C460078002802D0082009B0F0BD10990F9801900095029105A807C800F0FBF80028F2D16946264603AB84460873002C19D0002115E08A00B75AD4
:402AC000082F09D990198078002805D0083FB7521878401C187005E0002915D00027B75290198770491CC9B2A942E7D360460028CED10F9800280AD0109901F0D1F9000693
:402B0000000E04D00120C3E701208446EEE701F013FE2948002101610C300599016021888180022D03D3A1798171A17AC17100211EE0481C19E082008B00A75AE65ABE4621
:402B4000BE4211D26F463E80B4461E190296B678BE7001967646E6521719029EBB78B3706646A652019EBE70401CA842E3D3491CA942DED3114800906846037B224607999E
:402B8000069800F013F9002882D168460A4C007B60700A4801F000FE0028B4D1204607490C3007F03DFC0028ADD107F057FC0028A9D1012121706BE7E80B0020140F0020B4
:402BC000F8B5054633480E460078002802D002242046F8BD002E5BD000242F49002D16D02A89D0070DD02868002808D003881B3BE12B04D24088FB2801D81B2801D201249A
:402C000009E0900707D56868002804D1F7E70020088108604860002CDAD11F482F8907811C481B21801D018041800421017119490020891C0870F80705D016480622801DAA
:402C40002968FFF7A6FE1449B80703D56A681148127882700F480D46801D0860001F486001F0E0FD0B48801D01F0CEFD28890DF08FFC28890DF0C4FD03461033FFF79AFEDC
:402C80001F21C018890140180249308088809FE701249DE7E80B0020140F0020FFB58446384F1C460020BB883F78054602460646002F11D100290ED0029999420BD361461F
:402CC000002908D0002C06D00A99002906D02E4B0B99994202D2012004B0F0BD002144E0AB001F19BF78002F3BD0E35A002B38D07B43591889B22B0000F04AF805041016E2
:402D00001C253100A7782388BC46FF27233BEB37BB4222D26346032B1FD322E0A388002B1FD0302B19D31CE02389002B19D0282B13D316E0A289002A13D01346134F233B2B
:402D4000BB420AD20DE0268A002A0AD033460F4F233BBB4201D2964203D901200EE0002001E000280AD16D1CEDB2099B9D42B7D31C2463435B1802998B42ACD89642AAD839
:402D8000AAE70000E80B002079020000BAFF000030B47446641E2578641CAB4200D21D46635D5B00E31830BC18470000FFB583B0002469460C801F4606468C80002806D07A
:402DC0000598002803D004983043800701D0012467E0002FFBD03449049809888842F6D3FFF726FBFFF70EFB00F010FC002856D100F054FD002852D12C49084601F084F814
:402E000005042D0C4BD12A480499066081800021C18007810C98007AC00704D0684601F0A4FC040007D10C98007A800703D501A801F0A4FC0446BF1DFEB2002C21D13146DE
:402E4000059800F05DF804001BD10DF0E7FC0406240E16D16A461088928808368518144AF1B29088D288AEB29319984207D3401B801A80B201F038FB050007D000E0FF25E2
:402E8000012400F05BFA002D04D008E0F8B200F01BF9F6E700F07EFA06490120087000F0C7FB204607B0F0BDEC0B0020ED2F0000200F0020FC0B002010B50348007801280E
:402EC00001D101F0B3F910BDFC0B002070B5084B0446DA889E8800205518B54206D81D68AA182260DA885118D98070BD032070BD200F00200148008970470000200F002032
:402F0000F0B587B007460D4600208900009006916846FFF7DBFF844600285DD1304800990160002117E02E4B88001A680629115406D22C4C0419667882185670628805E08C
:402F4000C419203CA67A8218567022891B68C018491C4280C9B2A942E5D300242DE0601CC2B2059025E01E4FA30039689600581840887118039604904E88B04217D9384627
:402F80006F46FE80B6464F786E4677710297049F4F800168039F5E18767879184E700168764659184E800068029F18184770521CD2B2AA42D7D30598C4B2AC42CFD3604691
:402FC000002809D168460699FFF780FF8446002802D1054900980860604607B0F0BD0000000C0020E8420100040C00207047000010B5002809D005494A68002A05D0011FCD
:4030000008788000105801F01DFA10BD000C002010B50446FFF76EFFC0B2801DA0420CD307484068002808D0A100405801F07CF9002801D00470001D10BD002010BD00000B
:40304000000C0020F8B516460D460446FFF752FFC0B2801DA04203D20020C0430090F8BDB2B2E9B2684601F085F90099481C03D0024AA000526811500098F8BD000C00209D
:40308000F8B50746FFF736FF801DC6B20A49002005460C680DE06178002907D06188B94202D32078FFF7B4FF002804D1241D6D1CEDB2B542EFD3F8BD000C002010B50028F7
:4030C00001D0FFF795FF10BD70B506460948002504680BE06178002905D062882078121D0023FFF7AFFF241D6D1CEDB2B542F1D370BD0000000C0020FFB581B00A9C1600FD
:403100002BD000F0F1F80546042826D0214F002C0BD02046FFF7B4FF2901C919486000281BD022460499FFF734FC1A4928010E5046187481019805707D20029CC000444309
:4031400000F0C0F8009004280AD000F055FAA0420ED800F051FA201A06E0FF2005B0F0BD204600F0ADFA0020B08135720020F5E700F042FA074600F0B9FA381B87B2384617
:40318000012100F0EFF800980101024808188781E6E700002C0F0020F8B5060117483418217A042903D0A089002802D018E00020F8BD00F021FA054600F098FA00F0A2F896
:4031C00004280DD001010D480F18B88941198DB2002100F0C7F80020B881284600F070FA6068064D002801D0FFF768FF042020720020A8516081A081D9E700002C0F002020
:40320000FEB500266A46304601232549050169180D7A042D02D0898900291BD000211154401CC0B20428F0D300246846005D002830D01B482101081841894768056802910E
:403240000021016041600422418102728181002E02D015E01354E3E700F054F804280ED001010F480818019086890021304600F079F8019800218181304600F021FA0126EC
:40328000002D07D038460299A847002F02D03846FFF714FF641CE4B2042CC6D3FEBD00002C0F00200EB5002005216A460090118150810348694600680EF025F90EBD000090
:4032C000080C0020074A0020010189180B7A042B02D08989002903D0401CC0B20428F3D3704700002C0F00200549002002015218127A042A03D0401CC0B20428F6D370473E
:403300002C0F002030B50A4B04200A4C00210A011219157A042D06D09289002A03D09A4201D808461346491CC9B20429EFD330BDFFFF00002C0F00207047000030B500204C
:40334000074C05460423020111190B72A5504D60401C4D81C0B28D810428F4D330BD00002C0F002030B5094C00231A011219157A042D04D09589002906D02D1895815B1C31
:40338000DBB2042BF1D330BD2D1AF7E72C0F0020002070471CB5002469460C70142001902346054A05480EF0B3F804480068401C00D1FF2420461CBD11340000080C0020FA
:4033C0003EB5124A0146FF2000230124126800290DD0012914D0042908D104206946009308814B8110460EF08EF880B23EBD6846009304814381694610460EF07FF8F4E79B
:4034000068460093048143816946EBE7080C002070B545890468416800890300FFF7B8FC08280509091E22282628002005F0D6FD1EE0022908D0C8B22A4621460CF08EF955
:403440002046FFF73BFE13E002202A4621460CF085F92946204600F00DF809E000200DF041FD05E02046FFF7CBFE01E0FFF75EF8002070BD014B0022DB6818470C0C002077
:4034800070B5448905680089022803D0032809D0FF2070BD2246094C0023A46829460120A04708E0FFF7B2FA241DA2B200232946022006F066FE002070BD00000C0C0020C2
:4034C000704700000248002141600180418070470C0C002070B50C46002186B016460391012802D0022859D116E003A9012006F0A8FE01281BD1039D324621462846FFF774
:4035000048FA0095287801900220694608814E816846FFF7B5FF41E0214D002B686809D0049004A9022006F08CFE01281DD0022006B070BD002812D0298840182146FFF731
:4035400028FA28880024801980B228806988091D884206D12C801348FFF792FF03E00320E6E788421AD96C6018E004986860E278A378110219430B4A698000231060E356F6
:403580005360032313815181A1788170E178C1706178417021780170042028800020C7E70C0C00206C0F00203EB515460C46022803D004280CD000203EBD00910190022033
:4035C0006946088107484A8100680DF09CFF07E00CF0C4F8044B0022DB6829462046984701203EBD080C00200C0C0020014AD160906070470C0C0020034801688068081AD1
:403600000A21484300097047780F002010B5FEF7FFFE482204490548FFF7BBF903490120C870002010BD0000044301007C13002010B5FEF7E1FE10BD70B5134C2368002BDF
:4036400008D0207B1149C20705D04008400020738868A08070BD88680B4AA18880B29268814203D90A4D691A091802E0814202D2411A5118A160A080A0689842EAD30DF059
:403680005FFF00F013F870BD780F0020C0102E40FFFF000010B508461946FFF7A7FF10BD704710B5FFF780FF10BD000003480021016041608160C16070470000780F00203A
:4036C000024610B5FF20002A0CD0FFF7EFFF064C0321207B0843207310010A21FFF728F82060002010BD0000780F002000B504480A21806848430209FFF7D8FF104600BDD5
:40370000780F00200248007B8007C00F70470000780F002010B544490868002802DA434B01221A70022290430860414800693E49C00B4031096A08425ED0012000F06EFAF0
:403740003B483C497C30FEF771FD37480E216C30FEF76CFD364820218430FEF767FD344814219C30FEF762FD3148FF21C131A430FEF75CFD2E48FF212F31B030FEF756FD22
:403780002B482D49BC30FEF751FD29482B49AC30FEF74CFD29492648491CB430FEF746FD23482749B830FEF741FD21482549CC30FEF73CFD1E4824490830FEF737FD1C4802
:4037C0002249A830FEF732FD194821498830FEF72DFD17481F498C30FEF728FD14481921C9029030FEF722FDFEF72EFDFEF72AFEC0B2022802D00FE0FF2010BD16491748AA
:40380000FEF714FD15481649001DFEF70FFD134800210830FEF70AFD54200449C043891C0870002010BD000000F02E401C0C002000002E4055650000320300002F3F0000B9
:403840003102000010520000EC160000FA12000031D000003AE300009956000080012E40F80F000070B50646581C80B245086D00002408E0304600F0A9F81055000A111925
:40388000A41C4870A4B2AC42F4D3D80705D0D0182038D15CC47FD454C17770BD10B5FF2000F0BCF90F49FF2048700E481021801D41800121417001700A490020C91C4870A3
:4038C000FFF728FF04000AD100F008F907210648FEF79EFC044807211830FEF799FC204610BD00001C0C0020CC112E4070B5002405465B1E0AE0284600F068F8010A1619DB
:4039000071702D1D1055A41CADB2A4B29C42F2DB9C4203D1284600F059F8105570BD000070B500210A4D5B1E0AE0541864782602545C344346193480001D891C80B289B20B
:403940009942F2DB994202D1515C4019018070BD00102E40F0B50599091FCFB200217E1E0BE0541864782502545C2C43164D45192C80001D891C80B289B2B142F1DBFC073F
:4039800012D01C78515C24020F4A0C4381180C809C785D78001D210280B2294384182180001D80B2D9780CE059781A7809021143054A84182180001DD9789B78090280B255
:4039C000194380180180F0BD00102E40014940180088704700102E4010B50B490020487000F07CF8002000F03FF9002000F02CF907210648FEF70CFC044807211830FEF7D2
:403A000007FC002010BD00001F0C0020CC112E4010B50B46062812D006DC01280CD0032801D1FFF7D9FF10BD0A28FCD00B28FAD105480078107010BDFFF730FF10BD114604
:403A4000184600F02DF910BD220C0020F8B5204DAC6A0127A0071F4E002816DA307806280ED1286A384328621B480069F903084381B219481030FEF7D9FB042000F0CEF85D
:403A8000134802212830FEF7C3FBE00711D0062000F0C4F80F49FF20C91E48707078002802D1686B38436863094801212830FEF7AFFBE0050BD53078042802D1052000F0E6
:403AC000ADF80348FF2101312830FEF7A1FBF8BD40F02E401F0C002000002E4010B503212348FEF7A3FB0120FEF778FC20483038406A204C80076178800F890001431C4818
:403B00000C38FEF793FB6078002808D0401E022181401820FEF7FCFEC000083800E0B82081B21548FEF782FB1348032109021438FEF77CFB10481149B830FEF777FB6121FE
:403B400089010F48FEF772FB0D480321001FFEF76DFB0C490C48FEF769FB0B480B496038FEF764FB084801218838FEF75FFB10BD70F02E40220C0020D8102E40908900009F
:403B8000041E2E40FF0F000058122E40209000000849087806280BD148780749002803D1486B400840004863C86A01221043C862704700001F0C002040F02E4001480078DF
:403BC000704700001F0C002000B50300FFF7E0F8080D050D0B070507090D012000BD032000BD042000BD022000BDFF2000BD0000074A9168D26889B2064B92B2994204D184
:403C000005498A4201D1012100E000210170704780002E4033D000003FE3000010B50446FEF7F0FB072C01D9FF2C01D102480470FEF7E2FB10BD00001F0C00200149487097
:403C4000704700001C0C002010B5064A012805D01921C9021046FEF7E9FA10BD1D21C902F8E7000090002E4010B50A4A141D012808D009491046FEF7D9FA08492046FEF7E5
:403C8000D5FA10BD04491046891CFEF7CFFA0349491DF3E788002E4031D000003AE3000070B50C460546FEF7CDFBC0B202280E49287804D0FF2810D04C280CD810E0FF2866
:403CC00009D10A4AD0680004800F032801D0087807E09069000A553803E00878207070BD4F382070087070BD1E0C002000002E40F0B50122002830D000292ED004244206BD
:403D000000D00524792342065B06D21800D0641C034600221EE00C2516466E43104D00277519AF720E4F002ABB51696007D0661EB24209D10B4E86197606760E05E05E066B
:403D4000760E8027BE1B00E080269B198919521C2E81D2B2A242DED300221046F0BD00000412002079020000074900200C2242435218927A012A05D0401CC0B20628F5D3FA
:403D8000002070470120704704120020F8B50F000446164609D0184D18496868A04202D94018A04201D38E4201D90120F8BD39462046FEF7DFFD00281BD0324639462046DC
:403DC000FEF7E7FDF0B200210C224A43521913895668F718A74208D90127A41B1B1B9772834206DAC01A1469C0B2491CC9B20629EAD30020F8BD00000412002079020000E8
:403E000010B500F05DF80748054AC16806480C46FEF7BFFD04492046FFF76AFF10BD000079020000280C0020880F0020002070470020054A002902D0012902D002E050602C
:403E400000E0906000207047280C002070B5084C154608460549A26889182A46FEF799FDA0684019A06028B270BD0000880F0020280C00203EB50A226946FFF7E7FF0446CA
:403E800006480A2200686946FEF774FD002802D00020C0433EBD20463EBD0000280C0020002802D0044A914201D2FF20704703490A61C8600020704779020000280C0020F5
:403EC000024800214160816070470000280C002070B5074C15460548626880182A46FFF755FF60684019606028B270BD880F0020280C002010B503490A220968FFF7E8FF10
:403F000010BD0000280C002010B50F4A002313600E4A13600E4B18600E4801600E49012008600E490860000290600E490C4808600D4914300860FF381538506000F0BCF8DB
:403F400000F0CAF9002010BD540C00203C0C0020680C00206C0C0020580C0020480C00204C1300204C0C0020600C0020014610B50020002910D0094B1A689C685118A142B7
:403F800009D25868196080188A0704D08A07920F891A091D196010BD002010BD3C0C0020F8B50024164E671E321F3D463168136806E01422624310328A58521C1BD0641CFA
:403FC0009C42F6D36A1C14D02C461422544322460C3288500C214843FFF7C8FF3168002808510AD031680020103408517068401C70602846F8BD2546E4E73846F8BD0000A4
:404000004C0C0020F3B50026F64381B000281BDB1E490968884217D80299002914D01B4F142204463F1D54432546396810354859401C09D0FEF7E6F938682F1F4159C359FD
:40404000994203DBFEF7D8F93046FEBD214608310091465801590C20704308180C220299FEF797FC0948761C001D0068C159B14200D100260549009A091D865008684159BD
:40408000491C4151FEF7B8F90020FEBD480C0020002803DB07490968884202D90020C043704704491422091D096850431030085870470000480C0020F0B500200D4A451ED7
:4040C0000346171F50600FE014260146714314680E1DA3510C461668083433511668083435511468401C635039688842ECD30020F0BD00004C0C0020F3B50026F64381B0D0
:40410000002841DB2349096888423DD8029900293AD0204F142204463F1D54432546396810354859401C2FD0FEF76CF93868415900292BD0211D009146580C210059714323
:404140000F46C1190C220298FEF723FC11480021001D0068761C00590C34C0190160416081600C48001D00680159B14200D100260849009A091D865008684159491E415147
:40418000FEF73AF90020FEBD3046FEBDFEF734F9FAE70000480C0020FEB504460D4600201E49089E0860471E009001900290002C11D0486885420ED2002A0CD0002E0AD0E5
:4041C000642E08D808460C3001681C2068430C18207A002801D03846FEBD0120226020721846FFF7DDFE6060401C13D06681A6810A4827610C3067610179A94200D2057187
:404200000021684601810A462846029B00F040F82846FEBD00202072DDE70000540C002038B50124009400F039F838BDFEB50027164EFF433D4600240EE01C203168604342
:404240000818017A002906D04068FFF721FF002801D0254603E0641C3079A042EDDA681C12D01C2130684D434419FEF7CBF869466068FFF741FF0546FEF7BEF8002DD9D173
:40428000216868468847D5E7FEBD0000600C002038B50024009400F001F838BD1FB500220C49541E0A60002811DB496888420ED808491C220C31096850430818406801A994
:4042C000FFF7A0FE401C02D0002004B010BD2046FBE70000540C0020F0B50021114A4D1E174611710C3F0B46BD6016E008461C2460431668041D355114680646235014686C
:404300000836A3551468361DA353044616680A34335318301468491C255078688142E5D30020F0BD600C002038B500210091002811DB0F49097888420DDA0D4D04010C35C7
:4043400029680859002807D0201D0818694600F06FF9002801D0002038BDFEF753F828680F34015D491E0155FEF746F8009838BD700C0020F7B582B0002502986E1E0660C1
:404380002E48D21C024017462D4A2C4610460C380178106805E02301C358002B0FD0641CE4B28C42F7D3711C28D03401211D40180191039900F02AF900281FD101E02646B4
:4043C000F1E71F48016820460C300F521C480399026820460E30115419480399026820460F3011540398784300F0A0F8144900280968085102D00024009011E001251AE06A
:404400000F48016801980818009900F02CF9002801D0012502E00098C0190090641CE4B203988442ECD3002D05D10298066004480179491C0171284605B0F0BDFCFF0000B2
:404440007C0C0020F8B50D4600216A468C461180002839DB23490978884235DA214B04010C3319680A59002A2ED020460C300B5A801C0E5C184670438018954224D3854257
:4044800022D2002006E007465F43BF18AF4206D0401CC0B2B042F6D36046002814D0114E271DC8190C366A46294600F006F900280AD168460088012808D030682946C0194C
:4044C00000F0D1F8002803D00120F8BD0020F8BDFDF798FF30680F34015D491C0155FDF78BFFF3E7700C0020F8B50F46002400F031F8002817D10C4900220B460C334A60EA
:404500000EE021011D680E466A501D680C36AA53B61C1D680F31AA551D68641C6A54E4B2BC42EED31A71F8BD700C002000280BD0C01C074A81085068890053884118994281
:4045400003D89368516018187047002070470000700C0020F8B5064600200F4D009029700C0121466846FEF7B1FC00280CD129460C3100980860301B001F84B22146684692
:40458000FEF7A4FC002801D0FF20F8BD6C800098A8600020F8BD0000700C0020F8B5002827DB19490978884223DA174C05010C342168485900281CD028460C30085A009098
:4045C00028460E300E5C401C0E5420682F1DC01900F064F800280CD12068002445590EE0094829460C300068C01900F03CF8002801D00120F8BD00982D18641CE4B2B44298
:40460000EED30020F8BD0000700C002030B50D4604000BD0A800FFF789FF6060002805D000202570C0436080002030BD012030BD70B50D46040005D0002D03D00220205EAA
:40464000002801DA012070BDFDF7DCFE0221615E60688900405828606088401E6080FDF7CBFE002070BD70B50D46040007D0002D05D002212078615E401E814201DB0120AB
:4046800070BDFDF7BFFE6088401C00B26080616880000D50FDF7B0FE002070BD10B5040009D0227800216068FEF77CF90020C0436080002010BD012010BDF0B500231D4619
:4046C000002802D00224045F0AE00120F0BD46689F00F6598E4201D1012503E05B1CDBB29C42F4DA15700020F0BD00000148007870470000840C00207CB505460024FEF779
:4047000085F9A8796946087000A8062229460130FEF73FF90021684604F026FF0C2804D0072804D01F2804D004E0022402E0042400E0272420467CBD10B500F047F9FFF73F
:404740003DFAFFF741FA10BD70B504460025FEF75DF9002C06D0A079012803D8214602F099FC00E00125284670BD01460120002902D05020088000207047000001460120DD
:40478000002905D003485422007850430880002070470000860C002010B502460D49FE204870032410460DF0D1F9002810D10DF075F900280CD105F0A1FD002808D100F0A4
:4047C0001BFB002804D105F07DF9002800D10024204610BD840C002070B50025044600280ED0A07901280BD8FEF710F9A0790028204602D002F092FF03E002F067FF00E067
:404800000125284670BD0000014610B50120002904D006220248FEF7BCF8002010BD0000880C002001460120002903D0087802490870002070470000860C002038B504466A
:404840000120002C20D0617801291DD800290BD0FF25E535FEF7DAF80C4828180088C0B22070072803D00EE0FF25CD35F2E70020694608706846FFF7BBF9694608780128F6
:4048800001D108202070002038BD000000102E40F8B504460120002C26D06178012902D92278092A20D8002905D0FF25E5352078092803D004E0FF25CD35F8E70820207085
:4048C000FEF7A4F82078114F114E08280DD00020FFF7CAF970780128207810D00D4969180880FE2070700020F8BD0120FFF7BCF90720B8810549203188800120F2E7B88129
:404900000248217820308180EBE70000C0112E40840C002000102E4070B50E46050001D0002400E00C4C002C11D0E28A500609D5D107C90F022002F0CBFFE08A4021884388
:40494000E08204E0D107C90F012002F0C1FF3146284602F0A5FC70BDE4130020F8B50546002004460D4E009013E022466946284600F078FE0098002801D00DF0C9F8A87818
:40498000214602F0D9FAA878214602F0C7FA641CE4B2308AA042E8D8F8BD00009C140020064A02235188891C89B25180814201D8102900D953805088704700008E0C0020D1
:4049C00001484078704700008E0C002038B51E4CFFF7F4F8042813D0052811D0062812D003282AD007280AD100206946087002460120FFF70DF8FFF7E1F80128FBD138BD4C
:404A000000F0B4FB38BD02F003FB00F0AFFB02F063FB8007800F0228F4D10C4841880029F0D05B21095D0029ECD101210170A07D0140022002F04CFF38BD02F0EDFA0120F6
:404A4000FFF7ECF838BD0000E4130020920C0020F8B50646002402F099FF0546304602F0AFFF03460A480021068A0DE001228A401046174628401F40002803D0002F01D1EE
:404A8000224394B2491CC9B28E42EFD82046F8BD9C1400201CB50020694648706846FFF7CDFE01AA69460A20FEF7B2FF6946042008561CBD10B50C4601F06EF9002809D07E
:404AC0000179002906D0C1788078224602F07EFC002010BD022010BD0148007870470000BC1300204030C07E002800D00120704700B500F001F800BD8C2148430749084A42
:404B000040186030417F491CC9B24177D289914201D300214177C8B270470000C41300209C14002013B501F037F904000BD001F0FAFD002807D0214601AA0A310620FEF74B
:404B400067FF00201CBD02201CBD000010B50C4601F022F900280AD001F0E5FD002806D0224604490A20FEF753FF002010BD022010BD0000A5130020F3B581B0074601469E
:404B80000026029802F0FAFE0446002F01D0002500E0154D002D21D0284601F033F9032C04D13946029802F045FF06463846029902F0B4F9032C06D0002C10D001213846E9
:404BC00001F0D0FA03E03146384603F0C7F8284602F0ACF80221284602F0C2F8FEBD3846029902F09BF9FEBDE413002010B5044604F030F8002801D00C2010BD2078611CD1
:404C000002F0E0FCFF2801D01F2010BD02F026FDFF280AD02178621C02F016F9044821780068026B601C904710BD072010BD0000AC0C002010B504F00DF8002801D00C20EB
:404C400010BD02F0A1FC03480068C06A8047002010BD0000AC0C002070B50D46044610210CF096FE1021601806460CF091FE334610221946204604F01BF8102130460CF052
:404C800087FE02202870204604F062FE70BD0000F8B504464078217802028006870FE0781143A67809050002090D0643084601F073F800210546F2B2002812D0002C10D05D
:404CC000022F0ED0032F0CD0002A0AD00279092A07D0002A05D0134A5A23527E1B5C9A4207D82889002104F029FD20460CF010FFFF21002914D10C48224600682946436969
:404D000030469847C0B2FF280AD128464030817EF2B2491C8176FF232146284600F005F9F8BD00007C130020C40C00200020704710B5044603F08EFF002801D00C2010BD3C
:404D40002078611C02F03EFCFF2808D002F082FB044821780068426B601C904710BD1F2010BD0000AC0C002010B504F0ABFE00F097F9002010BD000010B504460F4801F060
:404D8000FBFC012817D00D48052221469C30FDF700FE0A4905229C310846AC38FDF7F9FD00F014FD054880222038C17B1143C17300F0ACF910BD3A2010BD0000E41300203C
:404DC00010B5044600786178E2780843A17811430843217908436179084305D003F02CFF002803D00C2010BD122010BD204602F095FC002010BD000010B5FDF723FB02F067
:404E0000E7FD044803F0B4FF02F02EFB012000F003F810BD8C130020F1B586B003A8009005A8019026489F22817A114081726846FDF706FE002841D169460989C90705D060
:404E4000204806990068C2686846904769460989890706D5002831D11B480068816A0698884700282AD1194E0025757075737571F575357675767575B570F570B5713746A2
:404E8000F5730120BC3738731F20F880FF2130467972A0300175457503F062FC01F024FC00242046069901F0D1FB002803D1641C2406240EF5D0FD72BD72B57307B0F0BD84
:404EC0007C130020C40C0020AC0C0020C413002070B505460E46084602F058FD0446304602F06EFD0121A9400A46224001400A4301D0012070BD002070BD10B504460846BA
:404F000002F05EFD0121A140014201D0012010BD002010BD10B5FEF751FE032804D102F07BF80120FEF77AFE10BDFEB51C4616460F46054601F0FAFEA878FFF7D9FD02463B
:404F40000190334639460094284600F00DF8002808D1A8780199FFF7DFFCFF2C02D138460CF0D6FDFEBD0000FFB585B005460E980C46FF2810D02B49C00009680A5840188D
:404F80000179C0795278814201D9012601E09006860F6846038108E06078A1788006860FE0780002014368460181284601F0D0FB070007D021462846079A00F0FFFA3846CB
:404FC00009B0F0BD304600F0E5FB04AE0346039002AA29460096204600F0EBF93C20405D002818D0284601F0B3FB012813D0684600890096C0B20190A878231DFF22079979
:4050000002F002F968460089039BC2B2A878079902F046FCD3E7684600890021C0B20091E9E70000C00C0020F8B5104F002500242846FFF70DFD060012D00EE03046E04046
:40504000C007C00F07D02146284601F05FFF21462846FFF791FD641CE4B2388AA042EDD86D1C2D062D0EE2D0F8BD00009C14002070B50024094D03E0002C01D0002000E01A
:4050800028464121095C012901D100F050FA641C2406240EF0D000F039F870BDE413002010B502F0E1F90020FFF7B6FE0CF0C6FD002010BDF8B5002403F0EEFA012800D1D7
:4050C0000224114F00203E46203601230425082203E0002801D0002100E031460979002907D001290BD002290BD0114681402143CCB2401C0006000EEBD07C70F8BD1C43B3
:40510000F7E72C43F5E70000C413002070B5144E0024F07BC00921D03546203503E0002C01D0002000E0284601F008FB012814D0641C2406240EF2D0F07B4006400EF07360
:40514000002403E0002C01D0002000E0284600F0EEF9641C2406240EF4D0002070BD0000C413002010B5FFF7A5FF10BD10B5FCF734FE0446FEF722FD012809D0FEF71EFD7C
:40518000022805D0FDF72EFA2046FCF72AFEEEE72046FCF726FE10BD10B50B4681791943817103D08078114602F032FB10BD10B582798A43827102D1807802F03DFB10BD86
:4051C0000346084800B5834209D8184600F0E4FD002804D00089984201D1012000BD002000BD0000FF0E0000074A9179491C8906890E917138220A4092014907090E1143B9
:405200000843024908407047C4130020FF0E0000C006C00E70470000F8B507460E4600240D4803E0002C01D0002500E005462979002905D0641C2406240EF3D00020F8BD7F
:405240000021204601F002FA2E712046FFF7CCFF28813C700120F8BDE4130020F7B53D20405C88B015460C46002802D02878042802D200200BB0F0BD694608720026204651
:40528000FFF730FC012800D00126204603A938300191009023460327A17E34333246206A03F086FD02A8089900900B46019120463A4603A9243003F0DBFC02466846007AA1
:4052C0002870204601F0AEF91046D3E7FFB587B00C4605461078694608723D20005D1746002826D000262046FFF7FCFB012800D00126204603A93830019100902346A17EDD
:4053000034333246206A03F053FD02A80090291D019120462B1D03A924300A9A03F0A8FC02006846007A388002D1204601F07AF910460BB0F0BDF0B505463C20405C89B068
:4053400016460C4600280CD0307869460873002806D000272046FFF7C5FB012803D003E01F2009B0F0BD012703200890204604A93830019100902346E17E34333A46E0696C
:4053800003F016FD6846007B03A928180290009120462B46019504A92430089A03F09CFC02466846007B3070204601F045F91046D7E7FFB505463C20405C89B016460C467C
:4053C000002810D0084601F0C3F901280BD0308869468883002809D000272046FFF782FB012805D005E000200DB0F0BD0220FBE70127204603A93830019100902346E17E36
:4054000034333A46E06903F0D3FC291D2B1D07A8129A6D4607C5204603A924300C9A03F05BFC02466846808B3080204601F004F91046D9E710B518490446484028D0002190
:4054400001231A468A40904221D0491C2029F8D300212046C840C243520618D0400616D0491C1929F5D3A0B2210C020AC3B2884201D193420BD01F21204600F090F9182888
:4054800005D8A00E062100F08AF9022801D2002010BD012010BD0000D6BE898E002801D0002000E003484030C07F012800D0002070470000E41300200146002049070ED5D0
:4054C0000021084B03E0002901D0002200E01A461279022A04D0491C0906090EF3D0704701207047E41300200146002049070ED50021084B03E0002901D0002200E01A462D
:405500001279022A04D0491C0906090EF3D0704701207047E413002010B5044680346068002803D00CF008FB0020606010BD38B50546002000902846FFF7D4FA01281FD187
:40554000284601F0F0F800281AD028792C46C01E40340300FDF71CFC07050511110511141100284601F0FAF8012806D068460CF075FA002805D0012008E060780028FAD0B7
:4055800038BD2846009902F02DFD0220607038BD40308170704770B50546403528780C46052904D0002C05D1801E022802D8022002F0A8FE2C7070BD0171704792001018F1
:4055C000C166704710B5002801D0002000E00348002802D0008904F025F910BDE413002010B5002801D0002000E00448002804D00179072901D100F08BF810BDE413002072
:4056000010B54121095C012901D1FFF790FF002010BD000070B50546008A00281ED01049F122897A1140C90618D5294640314A8A098A521C4A4392B2D10800D10121540836
:4056400001E0621A94B2A042FBD9FFF74FF8012804D1298AA878224601F05EFE70BD00007C13002010B50023054C0B60248A944204D992001018C26E0A60C36610BD0000E3
:405680009C140020FEB506460020009001908020855968460CF0E2F9002801D00720FEBD20213046009FFFF782FD34464034A08AE080608AA080208A2081304602F088FE76
:4056C000A88C218A884207D1288A618A884203D1688AA18A884203D0F07920210843F071688AA082288A6082A88C2082E98CE182FFF756F9E081208AFFF762F96073394695
:40570000304602F097FC0120A0700198FEBD000038B5044600200090A079002814D14020015D052901D00E290ED168460CF096F9002809D12046009902F05EFD0348102106
:40574000C28A2046FFF728FD38BD00007C13002010B50446807802F06BFE204601F074F9002010BD10B50B4604460146184602F095F9002802D020460CF0D4F910BD13B562
:40578000044601AA11460620FEF742F96846818861811CBD002800D102207047704770B500231A46491E0CE00446D440E507ED0F541C0646E640F407E40FA54200D05B1C0D
:4057C000521C8A42F0D3D8B270BD000030B50021124C0A46A05C002308E0C50701D0491CC9B201290AD840085B1CDBB20028F4D1012903D8521CD2B2052AEBD302290BD28C
:4058000007488118C87B0122082B03D29A400243D0B200E01043C87330BD000080140020C41300207FB504468034616805460E46183108226846FDF7ACF831462031082226
:4058400002A8FDF7A6F8102168460CF0A1F86068102108300CF09CF860682B46083024331022694603F024FA7FBD10B504460821FFF79DFC10212046FFF799FC2079052812
:4058800022D0062820D008281DD12189002003F03BFF072020712046FFF724F9012819D00E212046FFF777FE002158200155204601F050F92046FFF72FFE2046FFF7AAFE64
:4058C0002046FFF79DFE10BD20890122002103F0FFFEDEE70521E4E7FFB581B01F4604460821FFF764FC10212046FFF760FC2079082803D0092804D0042503E00425012658
:4059000001E009250026204600F004FF00212046FFF741FE25712046FFF7FEFD0398002E02D0012808D00BE001280AD120890022029903F0CDFE04E02189029803F0E4FE84
:4059400001272046002140300176012F07D0204601F000F92046FFF753FE05B0F0BD02990173204602F08BFC054605480121C28A2046FFF711FC002DEFD109202071ECE754
:405980007C13002070B50C460546FFF7ABF8012809D108212846FFF70AFC0023012221462846FFF799FF70BD10B5044600F0B2FE2046FFF7B1FD00212046FFF7ECFD10BD85
:4059C00070B505461A24FFF78DF8012809D108212846FFF7ECFB0023012221462846FFF77BFF70BD38B505460021684600910CF035F8002801D00D2038BD2846009C00F079
:405A0000D9FE2146284602F0A1FB06480821C28A2846FFF7C1FB06212846FFF7BCFD002038BD00007C130020F8B50446002000900E4668460CF012F8002801D00D20F8BDB7
:405A4000204604213430009D00F0A1F9842000590821183000F09BF9012E02D1204600F0A9FE2946204602F02BFB06480821C28A2046FFF791FB02212046FFF78CFD00205F
:405A8000F8BD00007C13002010B50446FFF7CAFE03212046FFF77FFD204601F047F910BD10B50021FFF7C0FF10BD000038B504460021684600910BF0D1FF002811D120461B
:405AC000009A00F027FE1146204602F04AFB05480821C28A2046FFF75FFB07212046FFF75AFD38BD7C13002038B504460021684600910BF0B3FF002810D12046009902F0CE
:405B0000B3FB07480821C28A2046FFF745FB04212046FFF740FD204601F008F938BD00007C13002010B5FFF7A0FE10BD00787047F8B50025002801D0002400E0194C002CE8
:405B400029D0204600F0EFFD002824D02079032822D0052822D026464036B18AA07801F04FFEB078012816D10021204601F0C6FF274680373868002802D00BF0DDFF3D60DF
:405B80000020B0702046FFF73BFD2079072802D12046FFF73FFDF8BD042000E006202071F8BD0000E413002010B54C22115400F04CF810BD10B50446FF21FFF7F8FA0920C9
:405BC0002071A07801F042FE10BD000038B5FF216A461180002801D0002400E0084C002C0DD011460620FDF713FF684601882046FFF7C5FD03480068C1692046884738BD77
:405C0000E4130020C40C002010B504468079002809D022214C200155FF212046FFF7C7FA204600F012F810BD10B5037902464032002B03D01173092B02D003E0002100E07E
:405C40002221117300F001F810BDFEB50446008900270090278120792646403600281AD0012818D0022816D0002002F04BFB09E002AA01A9204601F0FFFE002807D1019890
:405C80000BF050FF204601F01FFF0028F0D02046FEF764FEB776254680352868002802D00BF04AFF2F606868002802D00BF044FF6F60317B002916D0009800F061F8A0784B
:405CC000002101F07DF9A07801F056FAA07800F02FFFFF212046FFF76AFA0B20FFF742FA00F0CAFDFEBD1F213173E5E7F8B517460E46054603F01CF804003CD020460C30CC
:405D000001F0F0F92046062200211830FCF74AFE2046062200211230FCF744FE1648224600683946436A28469847074626702846FEF7D8FE012148406070002D10D0288936
:405D4000608028464030C1782171002E0FD169796171018AE180418A2181808A608106E00648008BC005C00F2071002060803946204603F04CFCF8BDAC0C002000102E4085
:405D80000A4610B50146002003F064FD10BD10B50BF0DAFB10BD000000B50146FFF738FA002801D0002000E00348002802D002898A4200D0002000BDE413002038B5044630
:405DC00080346068002806D168460BF057FE002801D100986060606838BD000010B5014600F0B6FC0128887802D0FEF785FE10BD8C214843024940186030007F10BD000076
:405E0000C413002070B5054604464035A87F012811D1A1788C20084A484380186030067F3046FFF755F8002805D10220A877A078314601F03FFA70BDC413002010B50C4CC9
:405E4000A07A002813D0FFF7EFF80A48027F417F408B00F025FD012809D10020A07201F005F905498989090B01D000F023FB10BD80140020C4130020A0102E407047704735
:405E8000490510B5490F0B00FCF782FF060704080C0C0F073E21FFF787FE10BD0821FFF7C3FE10BDFFF7D1FE10BDFFF7ADFE10BDF8B507460025002D01D0002600E0204ECC
:405EC00001F094F83046403044890021418101F097F8304600F027FC01282BD1A00702D52846FFF725FEE00602D52846FFF76EFEA00601D5FFF798F8600601D500F04EFC57
:405F0000200602D5284600F01DF8600702D5284600F036FB380402D52846FFF761FB780402D52846FFF74EFBE00703D021463046FFF7A6FF6D1C2D062D0EBCD0F8BD0000E7
:405F4000E4130020F8B5002801D0002400E0144C002C23D025464035A87801281ED1FF278820493700593E46002805D00D49897A890601D5878AC68A2046FEF7B3FD01284E
:405F80000CD10096E88A2A8A3B46014602F0FEF9E882A2780146104601F078FBF8BD0000E41300207C1300200149096809680847C40C002070B505460088FFF7EDFE04004F
:405FC0002AD000F0B0FB002826D02079092823D0204600F0D1FB012820D02046FEF782FD0646E07920210843E071204601F09EFD002815D0294600F08BFE4220005D0028CC
:4060000010D02325E079DF210840E0712946204601F0E1FD284670BD022070BD3A2070BD072070BD002E05D02046FFF72BFB0500E8D1EFE70C2070BD70B50E460C2500F0D1
:40604000DFFD040012D0002522892946094803F031F8FF2202212046FFF748FEA07800F093FF2046FFF7F1FD022000E000203070284670BD0E200000FEB5044600F0C0FDB3
:40608000002801D00C20FEBD022101A8FFF7C4F8012859D168460079304F002801D0002601E03E462036002E4ED000213046FFF772FA3546002040356870A8700620FFF74E
:4060C00051F8208A6882228AE189A08902F0ACF928820246608AFF23A88249330093E18AA08A02F053F9E882288AFEF769FC6873288AFEF755FCE881184806228778A11DEC
:40610000AC30FCF746FC207901281FD06079E870A01D01F0EFFAFB20074010488770217EC278012917D0FB210A40C2700C4821460068826830469047B178204601F028F9A7
:406140003046FFF705FBFEBD0920FEBD0020E87004200743E1E704210A43E6E7C4130020AC0C002070B50D460026194A0146002801D0002401E014462034002C26D02046DC
:4061800000F0E6FA01280AD18C20484380186030007FFEF79DFE002801D101F0EDFF0D48006881692046884700280CD020464030817EA94202D3491B817600E08676208971
:4061C000294603F0BBFA204600F0B0FD70BD0000C4130020C40C002070B503460088FFF7DBFD040013D000F09EFA00280FD02079092819D02546997840352973204602F09F
:406200003EF80646A878012803D0AA8A02E0022070BDEA880A20424301212046FEF7BCFF002E01D109202071002070BD0EB5002217216B460292198100905A810120029BD6
:4062400000990BF019FD0EBDF8B518480024807A002822D1164E0025B089000B22E0204600F060FF1249A039401807882A462146384600F015FB012810D00E480122478323
:4062800005770A4944778A72002D01D0002000E02030002801D000F049FDF8BDB089000B641CE4B20028DAD1F8BD000080140020A0102E40C413002010B50446C0060ED5C3
:4062C00000200B4A03E0002801D0002100E011460979022909D0401C0006000EF3D00548006881692046884710BD00F005F8F6E7E4130020AC0C002070B51A4D002801D05D
:40630000002401E02C4620342179022904D0002901D001F09BFA70BD01225B210A5500F015FF032020710820FEF71CFF00212046FFF731F9204643300121064600F0E2FEA0
:4063400009480068016A30468847024600212046FFF7CCFCA078FFF727FEA87B401CA87370BD0000C4130020AC0C002010B50C46002121700088FFF70FFD03000BD000F03D
:40638000D2F9002807D00948F121807A0840C00603D4112010BD022010BD022020701A8A1889002103F072FA002010BD7C13002070B50088FFF7F0FC040008D000F0B3F9CA
:4063C000002804D0E079C10903D0002070BD022070BDC1068025002908DA2843E07108480221C28A2046FEF7D7FEEEE7204600F01BFA0028ECD1E1792943E17170BD000083
:406400007C130020F8B50F46002100910088FFF7C3FC040012D000F086F900280ED0E079410641D4617E02264A07002A08DB8907402500291ADA2843E07135E00220F8BD8D
:4064400002F076FC0021017021894180A1898180217E4170E189C1803E7005460178134802F0E8FE284603F0B5F91DE0204600F075F9012806D068460BF0F0FA002803D093
:406480000720F8BD2A20F8BDE07900992843E071204601F01DFF607E0421304360760448C28A2046FEF778FE0020F8BD1D0400007C1300203EB500220F236C460292238155
:4064C00000910190628169460EC900200BF0D4FB3EBD0000F8B50446002000902088FFF75BFC05001AD0FEF7FDFA002812D02348807AC00710D0284600F015F900280DD02E
:40650000287903280CD004280AD0072808D009282AD103E00C20F8BD1120F8BD0220F8BD2F464037387801281ED02846FFF746FC06001BD00822211DFCF72BFA3046A178A0
:406540002030017261881022090A417221460C311838FCF71EFAB878002809D001212846FFF719F80098F8BD0D20F8BD0720F8BD284600F04BFA0090F8BD00007C1300200E
:4065800010B5002801D0002400E00B4C002C11D0214640314878022801D100204870A07DC107C90F002001F093F92046FFF728F8FEF75EFD10BD0000E413002070B50346D1
:4065C0000D460088FFF7E8FB04000BD000F0ABF8002807D01248F121807A0840C00603D4112070BD022070BD20464030418A008A491C41430804C10C5888884201D21220E2
:4066000070BD20822079072802D12046FFF702F8022028702089002103F060F9002070BD7C130020016A491C016204D1817E491C4906490E81767047C169491CC16104D188
:40664000C17E491C4906490EC1767047F0B5064687B003A8009005A800270D460190002E01D0002400E01C4C002C05D06846FCF7E7F9002803D00BE0022007B0F0BD6846C0
:406680000089C00704D18C2200212046FCF78AF9124829460068826820469047050018D1A6706776277100212046FEF774FF204600F030F8204601F003FA094820825E2007
:4066C00007550848F121807A084000D001202075E782E8B2D1E70000E4130020C40C0020B80B00007C13002010B50020074B084AFF2119541418401CC0B221740428F8D344
:406700001F2119541018017410BD000080140020C4130020002101628176C161C17620300177417770470079002805D0012803D0022801D001207047002070474030407848
:40674000012803D0022801D000207047012070474030807F002800D00120704740300078002807D0012805D0052803D00E2801D00120704700207047074A0146927B0020D4
:40678000002A07D040314A78022A02D08978012900D1012070470000C413002010B500F065FC03498989090B01D0FFF783FE10BDA0102E4070B5054604464035A87F0028A3
:4067C00025D1FF206075A0788C21154A484380186030417F8C23491CC9B24177A0785843104B8018DB896030994201D300214177A0788C21484380186030467F0677A178DC
:406800003046FEF765FB002802D00120A87770BD0220A877A078314600F04CFD70BD0000C41300209C14002038B5002105460091FFF794FF012806D068460BF00FF90028DE
:4068400003D0072038BD2A2038BD2846009CFEF749F900280BD02146284601F059FC05480221C28A2846FEF797FC002038BD112038BD00007C13002070B50024074D03E06F
:40688000002C01D0002000E02846FEF7B9FE641C2406240EF4D0002070BD0000E4130020F0B515468207920F85B0000A02926A469080002D01D0002400E0524C002C28D03C
:4068C000084600F02FFC07466846808800280BD00298012843D0022841D003280BD03D20005D012870D087E04748381801882046FEF745FF80E00020029002A80BF08EF844
:40690000002807D03D20005D012878D12046FFF789FE74E06846029E8388324600213846FCF7A0FF3848381801882046FEF727FF284600F033FB01AA21463046FEF78EFC86
:40694000002806D030460BF0D9F83D204C21085528E0F5773146204601F086F94FE0002000902089039068460BF048F8002802D0002005B0F0BD6846009E8388321D0021A8
:406980003846FCF76FFF2048381801882046FEF7F6FE284600F002FB25464035287E00280CD103E02046FFF705F928E001AA21463046029BFEF78AFC002806D030460BF02E
:4069C00093F83D202873EDE713E00298FEF7E6FE01460398307003980901000A0843707068468088B070000AF0703046FFF71EFC05E02046FFF716FE284600F0CFFA01201B
:406A0000B7E70000E413002000102E4070B501790546032904D0042904D0072908D109E0052400E006240121FEF7FEFF002805D00D2070BD0824FEF7D5FFF7E7284600F077
:406A400075F92C71002070BDFEB5064602F070F9044602F066F9074602F059F9054602F06BF9029002F07AF901902570280A6070280CA070280E3546E0704035687B20714A
:406A80006771380AA071380CE071A87B2072E8892549000A6072287CA072288A0522000AE072A87C2073688A000A6073287DA073A88A000AE073204610300091FBF769FF5D
:406AC0000027F770B078009900F0D4FE777101984101029867750143A175080AE07503E0298A49004018308000F0CEFA3188042200F058FB01283088F2D00C4F38801821DB
:406B0000204600F02DFCA88A298AC000FBF710FE3881B07800F022FAE98AB07800F0B6FD00F028FAFEBD0000D413002000122E4010B5074A917B002901D0491E917300210A
:406B4000FFF784FD002801D0002010BD012010BDC4130020F8B5074606464037B87F00282DD0B0788C2100904843234945186035287F0099FEF7C1F901281ED0287F401C63
:406B8000C4B21E48C089A04200D800240020B877FF276F772F77A87702460146009800F0FFFC717DFF2903D0304600F04AFF777501F0E2FA0025114F19E00320B877F8BDCA
:406BC00000200090224669463046FEF74BFD0099002904D0FF231A463046FEF7A6F9641CF889E4B2A04200D800246D1CEDB2F889A842E5D8F8BD0000C41300209C140020B8
:406C000000B5022000F002F800BD000010B502460021084B03E0002901D0002000E018460479944204D0491C0906090EF3D0002010BD0000E4130020F7B50646087982B0F6
:406C40000C46092807D0A078F0770846FFF780FD012806D010E030460AF064FF022005B0F0BDA1788C20294A484380186030007FFEF72EF9012810D0A078FEF70FFC012864
:406C80000BD037780121304601F096F925462035062F38D00B2F0FD107E06846027C21463046FEF75FFD0D20D9E72046FDF71AFF012801D1002028772046FFF78FF8054692
:406CC00004AA21463046FEF736FB01205F2108556946097C002001910090A07833463A46294600F091FA69460A7CA0780323294600F0D6FDA0782946FDF70EFE30460AF0D8
:406D000011FF0020ABE70120D5E70000C41300208A8802804A884280CA8882800A89C2808A890281498941817047000010B502464032937F0021002B03D1927E002A00D0D0
:406D40000121064A927A002A00D000210279092A00D10121807800F0DBFD10BD8014002070470000094B022809D0042809D008280AD10648A03002820448A83003E0382079
:406D800000E05020C01801807047000000102E40014908817047000000102E4010B50446FF20F130022C02D0042C05D102E0FF20D93001E0FF20DD30002200F0CBFD044A59
:406DC000108A044980B2A0430880108210BD000000102E40960C0020034B198A034A89B2814311801982704700102E40960C002010B50446022804D0042C05D0082C07D1F2
:406E00000EE0FF20D93001E0FF20DD3000F09AFD0548018A054A89B221431180018210BDFF20F130F2E7000000102E40960C0020034B198A034A89B2014311801982704708
:406E400000102E40960C0020F8B505460120A84086B214460F46012231467C2000F07AFD3A463146782000F075FD6078267800020643E078A278000202436079237900026B
:406E800003430C2045430D2080010549281844182680001D44182280001D40180380F8BD00102E40401880B270470000CB065B0E0343480901021943D00108430121C902DA
:406EC000084301490881704780142E404278037812021343084A1382C37880781B021843908248780B78000203431383C8788978000201439183704700142E40024A1080A7
:406F0000000C90801181704700142E40024A10820148803081817047A0102E4010B5054A1082084600F03AFD024A0021A03A8018018010BDA0102E4010B50B46044600F006
:406F400005F819462046FFF7E1FF10BD024A10820148803001817047A0102E4010B504490882FF20012220211D3000F0F3FC10BDA0102E4000B50349442008800420FFF741
:406F800057FF00BD00102E400349088202494520A039088070470000A0102E40000202494D3008807047000000102E40034A1082024880308088401880B27047A0102E40BD
:406FC00010B5084B074C0202A03B0029208202D075321A8010BD04490020088088807632F7E70000A0102E40201A2E4000B5034908884880FFF7F0FE00BD0000960C002097
:4070000000B502484088FFF713FF00BD960C002010B5FCF7BDFD10BD014952200880704700102E40884201D8081A03E00022D243101A401880B2704710B50B460246002181
:40704000F820FCF70FFC10BD0748808806492039098B884201D8081A03E00022D243101A401880B27047000020112E400148008AC0B27047A0102E400249088201488030C9
:4070800080887047A0102E400148008970470000C0102E4000280FD00D4A108B0870000A4870908B8870000AC8700948203000880871000A48717047064A10880870000A1E
:4070C000487090888870000AC8701089F0E7000040102E40C0112E400148008A70470000001A2E40064B1A8999891B8A0270120A42708170090AC1700371190A41717047D7
:4071000060102E40012904D00549098BC90B017070470349403109898907C90FF7E7000000102E4001484089704700009C140020044A10820448028980894843101880B244
:4071400070470000A0102E409C14002000B5084908828C21074B4143C918FF2260314A770A7700228A77114600F01AFA00BD0000A0102E40C41300208C225043074A10B5DB
:407180008018FF21603041770177002181770448418EFF201D3000F0D5FB10BDC41300207C13002010B50023884201D8081A03E00024E443201A4018044980B2884201D8F5
:4071C000824200D90123184610BD0000FF7F000070B55478157824022543D47888232602947834435679127936023243002900D09823044908820348A03818180580848009
:40720000028170BDA0102E40FFB581B014460D4607460A9E0B9BFFF78BFF002E0AD0009333460021049AFCF795FB05484019C45505B0F0BD0021049AFCF772FBF5E7000061
